:100000000C945D000C9485000C9485000C94850084
:100010000C9485000C9485000C9485000C9485004C
:100020000C9485000C9485000C9485000C941D01A3
:100030000C9485000C9485000C9485000C9485002C
:100040000C94D3000C9485000C9485000C948500CE
:100050000C9485000C9485000C9485000C9485000C
:100060000C9485000C94850000000008000201003B
:100070000003040700000000000000000000000072
:10008000250028002B0000000000240027002A0083
:10009000040404040404040402020202020203032E
:1000A0000303030301020408102040800102040836
:1000B0001020010204081020860311241FBECFEF78
:1000C000D8E0DEBFCDBF11E0A0E0B1E0E0EFF8E0A6
:1000D00002C005900D92A030B107D9F721E0A0E051
:1000E000B1E001C01D92A136B207E1F710E0CDE505
:1000F000D0E004C02197FE010E947004CC35D107E6
:10010000C9F70E94DE010C9476040C94000090E084
:10011000FC01E859FF4F3491FC01EC55FF4F24914D
:10012000FC01E057FF4FE491EE2309F43BC0332379
:1001300039F1333091F038F43130A9F0323001F533
:1001400084B58F7D12C0373091F03830A1F0343053
:10015000B9F4809180008F7D03C0809180008F77FB
:10016000809380000DC084B58F7784BD09C08091D5
:10017000B0008F7703C08091B0008F7D8093B00076
:10018000F0E0EE0FFF1FE458FF4FA591B4918FB739
:10019000F894EC91611103C020952E2301C02E2B01
:1001A0002C938FBF08951F920F920FB60F921124B8
:1001B0002F933F938F939F93AF93BF9380915D0154
:1001C00090915E01A0915F01B091600130915C015E
:1001D00023E0230F2D3720F40196A11DB11D05C08A
:1001E00026E8230F0296A11DB11D20935C01809388
:1001F0005D0190935E01A0935F01B09360018091D7
:10020000580190915901A0915A01B0915B0101965A
:10021000A11DB11D8093580190935901A0935A01DB
:10022000B0935B01BF91AF919F918F913F912F91BF
:100230000F900FBE0F901F9018951F920F920FB640
:100240000F9211242F933F934F935F936F937F935C
:100250008F939F93AF93BF93EF93FF93809101018F
:1002600087FF05C010928500109284001BC020916A
:100270000101022E000C330B8091000190E0281741
:10028000390784F480910101082E000C990BFC01C0
:10029000EE0FFF1F8E0F9F1FFC01EE5FFE4F808150
:1002A00086FD15C0809101018F5F8093010120912F
:1002B0000101022E000C330B8091000190E0281701
:1002C0003907C4F4809101018C3064F113C080912E
:1002D0000101082E000C990BFC01EE0FFF1F8E0F81
:1002E0009F1FFC01EE5FFE4F808160E08F730E94D4
:1002F0008700D8CF80918400909185000496803447
:100300009C4918F480E49CE905C080918400909198
:100310008500049690938900809388008FEF8093E6
:1003200001013BC020918400309185008091010142
:10033000082E000C990BFC01EE0FFF1F8E0F9F1F64
:10034000FC01EE5FFE4F81819281820F931F90939B
:1003500089008093880080910101082E000C990B80
:10036000FC01EE0FFF1F8E0F9F1FFC01EE5FFE4F83
:10037000808186FF12C080910101082E000C990B2C
:10038000FC01EE0FFF1F8E0F9F1FFC01EE5FFE4F63
:10039000808161E08F730E948700FF91EF91BF9190
:1003A000AF919F918F917F916F915F914F913F910D
:1003B0002F910F900FBE0F901F901895789484B5D1
:1003C000826084BD84B5816084BD85B5826085BD51
:1003D00085B5816085BD80916E00816080936E00DF
:1003E00010928100809181008260809381008091D1
:1003F0008100816080938100809180008160809382
:1004000080008091B10084608093B1008091B00041
:1004100081608093B00080917A00846080937A003C
:1004200080917A00826080937A0080917A00816066
:1004300080937A0080917A00806880937A0010928D
:10044000C10080E090E0A4EBB2E480932601909399
:100450002701A0932801B093290180E090E0ACE847
:10046000B2EC80932A0190932B01A0932C01B093BE
:100470002D0180E090E0ACE8B2E480932E019093EF
:100480002F01A0933001B0933101109232011092EC
:100490003301109234011092350110923A011092FA
:1004A0003B0110923C0110923D01109236011092D6
:1004B0003701109238011092390110923E011092CA
:1004C0003F0110924001109241011092440110929C
:1004D000450110924601109247018EE1809342013E
:1004E000109248011092490110924A0110924B015A
:1004F00010924C0110924D0110924E0110924F013A
:10050000809155018C3008F068C0E6EAF0E0249153
:10051000E2E9F0E08491882399F090E0880F991F38
:10052000FC01EA57FF4FA591B491FC01E458FF4F3D
:10053000859194918FB7F894EC91E22BEC938FBF57
:10054000E0915501AE2FB0E0CD01880F991FA80FA3
:10055000B91FAE5FBE4F8C91807C82608C931092ED
:100560005601109257018E2F6CE00E9464049CE0AB
:10057000899FB001112440E050E09A01260F371FF7
:10058000D901AA0FBB1F2A0F3B1FD901AE5FBE4F77
:100590009C9196FD16C04F5F5F4F4C30510569F737
:1005A00081110FC01092800082E080938100109230
:1005B000850010928400B19A80916F0082608093D0
:1005C0006F008E2F90E0FC01EE0FFF1FE80FF91F68
:1005D000EE5FFE4F80818064808360912601709180
:1005E000270180912801909129010E940504603221
:1005F00082E078070CF040C077FD06C0653B7105CE
:100600002CF064EB70E002C060E070E08091560175
:10061000A8E8B0E06D01C81AD10887FDD394D601CF
:10062000AA0FBB1FAA0FBB1F6D01BB0FEE08FF086F
:100630008091570128E532E0281B310987FD339569
:10064000220F331F220F331FC901330FAA0BBB0B1D
:100650009C01AD012C193D094E095F09DB010E9487
:10066000CC0324EB30E040E050E00E94A203C20E35
:10067000D31EE41EF51EB601209155012C3088F5DD
:100680003091560188E890E0831B910937FD9395DE
:10069000880F991F880F991F681779078CF0809130
:1006A000570148E552E0481B510987FD5395440F17
:1006B000551F440F551FCB01461757070CF4CA01AD
:1006C0000297880F991F4FB7F89430E0F901EE0FA9
:1006D000FF1F2E0F3F1FF901EE5FFE4F92838183B4
:1006E0004FBF82E090E0909353018093520183E0EA
:1006F00090E0909351018093500110925401C0E01A
:10070000D0E02097F1F30E940000FBCF8091000120
:100710008C30A0F491E0980F9093000180935501E4
:1007200090E0FC01EE0FFF1F8E0F9F1FFC01EE5F9C
:10073000FE4F88EB9BE09283818308958FEF809337
:1007400055010895052E97FB1EF400940E94B903ED
:1007500057FD07D00E94D40307FC03D04EF40C943D
:10076000B90350954095309521953F4F4F4F5F4FBE
:10077000089590958095709561957F4F8F4F9F4F0D
:1007800008950E94F603A59F900DB49F900DA49F1D
:10079000800D911D11240895B7FF0C94C1030E9490
:1007A000C103821B930B0895A1E21A2EAA1BBB1B47
:1007B000FD010DC0AA1FBB1FEE1FFF1FA217B3072D
:1007C000E407F50720F0A21BB30BE40BF50B661F43
:1007D000771F881F991F1A9469F760957095809507
:1007E00090959B01AC01BD01CF010895A29FB0017E
:1007F000B39FC001A39F700D811D1124911DB29F55
:10080000700D811D1124911D08950E940C0468949F
:10081000B1110C945E0408950E94430488F09F5720
:1008200098F0B92F9927B751B0F0E1F0660F771F14
:10083000881F991F1AF0BA95C9F714C0B13091F00A
:100840000E945D04B1E008950C945D04672F782F39
:100850008827B85F39F0B93FCCF3869577956795CF
:10086000B395D9F73EF490958095709561957F4F3B
:100870008F4F9F4F089557FD9058440F551F59F0C3
:100880005F3F71F04795880F97FB991F61F09F3F7D
:1008900079F087950895121613061406551FF2CFA6
:1008A0004695F1DF08C0161617061806991FF1CFF6
:1008B00086957105610508940895E894BB2766271D
:1008C0007727CB0197F90895991B79E004C0991F08
:1008D000961708F0961B881F7A95C9F7809508959A
:1008E000EE0FFF1F0590F491E02D0994F894FFCFCF
:107E0000112484B714BE81FFF0D085E080938100F7
:107E100082E08093C00088E18093C10086E0809377
:107E2000C20080E18093C4008EE0C9D0259A86E02C
:107E300020E33CEF91E0309385002093840096BBD3
:107E4000B09BFECF1D9AA8958150A9F7CC24DD24C4
:107E500088248394B5E0AB2EA1E19A2EF3E0BF2EE7
:107E6000A2D0813461F49FD0082FAFD0023811F036
:107E7000013811F484E001C083E08DD089C08234E0
:107E800011F484E103C0853419F485E0A6D080C0E4
:107E9000853579F488D0E82EFF2485D0082F10E0AE
:107EA000102F00270E291F29000F111F8ED06801E7
:107EB0006FC0863521F484E090D080E0DECF843638
:107EC00009F040C070D06FD0082F6DD080E0C81688
:107ED00080E7D80618F4F601B7BEE895C0E0D1E017
:107EE00062D089930C17E1F7F0E0CF16F0E7DF06D8
:107EF00018F0F601B7BEE89568D007B600FCFDCFD4
:107F0000A601A0E0B1E02C9130E011968C91119780
:107F100090E0982F8827822B932B1296FA010C0160
:107F200087BEE89511244E5F5F4FF1E0A038BF0790
:107F300051F7F601A7BEE89507B600FCFDCF97BE46
:107F4000E89526C08437B1F42ED02DD0F82E2BD052
:107F50003CD0F601EF2C8F010F5F1F4F84911BD097
:107F6000EA94F801C1F70894C11CD11CFA94CF0C13
:107F7000D11C0EC0853739F428D08EE10CD085E9AC
:107F80000AD08FE07ACF813511F488E018D01DD067
:107F900080E101D065CF982F8091C00085FFFCCF94
:107FA0009093C60008958091C00087FFFCCF809118
:107FB000C00084FD01C0A8958091C6000895E0E648
:107FC000F0E098E1908380830895EDDF803219F02E
:107FD00088E0F5DFFFCF84E1DECF1F93182FE3DFCA
:107FE0001150E9F7F2DF1F91089580E0E8DFEE27F6
:047FF000FF270994CA
:027FFE00040479
:0400000300007E007B
:00000001FF
